:100000000C9463000C946D040C9446040C948B00C7
:100010000C948B000C948B000C948B000C94940427
:100020000C948B000C948B000C948B000C948B0024
:100030000C948B000C948B000C948B000C948B0014
:100040000C94FC030C948B000C943A050C9414054E
:100050000C948B000C948B000C948B000C948B00F4
:100060000C948B000C948B000200000000230026EF
:1000700000290000000000240027002A00000000E2
:1000800000250028002B00040404040404040402D6
:100090000202020202030303030303010204081025
:1000A00020408001020408102001020408102000F2
:1000B0000000080002010000030407000000000027
:1000C000000000006C0511241FBECFEFD8E0DEBF9A
:1000D000CDBF11E0A0E0B1E0E8E3FEE002C0059092
:1000E0000D92A834B107D9F722E0A8E4B1E001C02D
:1000F0001D92A631B207E1F710E0C3E6D0E004C0DC
:100100002197FE010E941407C236D107C9F70E9449
:10011000B6050C941A070C940000833081F028F483
:10012000813099F08230A9F008958730A9F08830A5
:10013000C9F08430B1F4809180008F7D03C080913C
:1001400080008F7780938000089584B58F7784BD79
:10015000089584B58F7DFBCF8091B0008F77809319
:10016000B00008958091B0008F7DF9CF1F93CF9399
:10017000DF93282F30E0F901E155FF4F8491F90119
:10018000E556FF4FD491F901E957FF4FC491CC23B5
:10019000A9F0162F81110E948D00EC2FF0E0EE0FD8
:1001A000FF1FE358FF4FA591B4918FB7F894EC91DE
:1001B000111108C0D095DE23DC938FBFDF91CF9162
:1001C0001F910895DE2BF8CFCF93DF9390E0FC01D1
:1001D000E556FF4F249189579F4FFC018491882356
:1001E000D1F090E0880F991FFC01ED58FF4FA591C9
:1001F000B491FC01E358FF4FC591D49161110EC039
:100200009FB7F8948C91E22FE0958E238C932881F0
:10021000E223E8839FBFDF91CF9108958FB7F894D1
:10022000EC91E22BEC938FBFF6CF806480937C003F
:1002300080917A00806480937A0080917A0086FDB4
:10024000FCCF809178009091790008953FB7F894A1
:1002500080915D0190915E01A0915F01B09160017C
:1002600026B5A89B05C02F3F19F00196A11DB11D11
:100270003FBFBA2FA92F982F8827BC01CD01620F4D
:10028000711D811D911D42E0660F771F881F991F08
:100290004A95D1F708950895AF92BF92CF92DF9219
:1002A000EF92FF920F931F93CF93DF936C017B012B
:1002B0008B01040F151FEB015E01AE18BF08C017BC
:1002C000D10759F06991D601ED91FC910190F0812F
:1002D000E02DC6010995892B79F7C501DF91CF91F2
:1002E0001F910F91FF90EF90DF90CF90BF90AF9054
:1002F0000895FC01538D448D252F30E0842F90E02C
:10030000821B930B541710F0CF9608950197089510
:10031000FC01918D828D981761F0A28DAE0FBF2FD9
:10032000B11D5D968C91928D9F5F9F73928F90E02F
:1003300008958FEF9FEF0895FC01918D828D98179E
:1003400031F0828DE80FF11D858D90E008958FEFDB
:100350009FEF0895FC01918D228D892F90E0805CA4
:100360009F4F821B91098F739927089581E691E031
:100370000E94AA0121E0892B09F420E0822F089530
:1003800080E090E0892B29F00E94B60181110C9445
:1003900000000895FC01A48DA80FB92FB11DA35A28
:1003A000BF4F2C91848D90E001968F739927848F95
:1003B000A689B7892C93A089B1898C9183708064B8
:1003C0008C93938D848D981306C00288F389E02D59
:1003D00080818F7D80830895EF92FF920F931F930A
:1003E000CF93DF93EC0181E0888F9B8D8C8D9813E8
:1003F0001AC0E889F989808185FF15C09FB7F894F4
:10040000EE89FF896083E889F9898081837080643F
:1004100080839FBF81E090E0DF91CF911F910F918A
:10042000FF90EF900895F62E0B8D10E00F5F1F4F99
:100430000F731127E02E8C8D8E110CC00FB607FCA8
:10044000FACFE889F989808185FFF5CFCE010E9436
:10045000CA01F1CFEB8DEC0FFD2FF11DE35AFF4FD9
:10046000F0829FB7F8940B8FEA89FB8980818062C4
:10047000CFCFCF93DF93EC01888D8823B9F0AA8981
:10048000BB89E889F9898C9185FD03C0808186FD4F
:100490000DC00FB607FCF7CF8C9185FFF2CF80819E
:1004A00085FFEDCFCE010E94CA01E9CFDF91CF9148
:1004B0000895089590E080E00895009769F0FC01A8
:1004C00001900020E9F73197AF01481B590BBC019F
:1004D0008EEF91E00C944C0190E080E00895CF9372
:1004E000DF93EC0160E08E810E94B60061E08E81B6
:1004F0000E94B60060E08E810E94B6008BE891E019
:100500000197F1F7DF91CF910895CF92DF92EF92AB
:10051000FF920F931F93CF93DF936C017C0187E0D1
:10052000E80EF11CD0E0C0E0062F10E0B8010C2E60
:1005300002C0759567950A94E2F76170F7018191A1
:100540007F010E94B6002196C430D10579F7C6011B
:10055000DF91CF911F910F91FF90EF90DF90CF909F
:100560000C946F02CF92DF92EF92FF920F931F9342
:10057000CF93DF93EC01F62E642F8C810E94B6009E
:100580008D818F3F19F060E00E94B6000F2D10E0C2
:100590008F8584FF25C06E0187E0C80ED11CF12C29
:1005A000E12CB8010E2C02C0759567950A94E2F70C
:1005B0006170F60181916F010E94B600FFEFEF1AA2
:1005C000FF0A88E0E816F10461F7CE01DF91CF91D0
:1005D0001F910F91FF90EF90DF90CF900C946F02DE
:1005E000B80184E0759567958A95E1F7CE010E9480
:1005F00085026F2DCE01DF91CF911F910F91FF905A
:10060000EF90DF90CF900C94850240E0682F8EEF42
:1006100091E00C94B202CF93DF93823029F4909151
:100620000D02986090930D028093110210921202B5
:1006300080E48093130280E18093140280E580932C
:10064000150261E0809102020E94E40080910302A1
:100650008F3F19F061E00E94E40061E080910402A4
:100660000E94E400CEEFD1E09E012E5F31408091E8
:100670000D0284FD0BC084E090E021962817390715
:1006800044F461E08E810E94E400EECF88E090E0C7
:10069000F4CF8BE39DE00197F1F760E080910202D7
:1006A0000E94B60060E0809104020E94B600809132
:1006B00003028F3F19F060E00E94B60080910D02A6
:1006C00084FD39C063E08EEF91E00E948502CBE4A7
:1006D000D6E4CE010197F1F763E08EEF91E00E943E
:1006E00085022197F1F763E08EEF91E00E94850289
:1006F00083E592E00197F1F762E08EEF91E00E94CE
:10070000850280910D0280620E94050384E080933F
:100710000E028CE00E94050381E00E9405038BE33A
:100720009FE10197F1F782E080930F0286E0DF916D
:10073000CF910C94050380620E9405038BE496E43C
:100740000197F1F780910D0280620E94050383E515
:1007500092E00197F1F780910D0280620E940503FB
:10076000D0CF81E00E9405038BE39FE10197F1F771
:100770008DE291E00E945D0284E391E00E945D02BF
:10078000E0911102E23080F4E150F0E0E250FE4FDF
:10079000848980680E9405038AE391E00E945D02DB
:1007A00081E491E00C945D02E1E0EFCF1F93CF93E1
:1007B000DF93C5E0D1E0188160E0812F0E94B60090
:1007C00060E0812F0E94E400229681E0CF30D807BC
:1007D00091F70E94B1039091520181E0911180E064
:1007E00080935201DF91CF911F91089541E00E94C3
:1007F000B20281E090E008951F920F920FB60F921F
:1008000011242F933F938F939F93AF93BF93809126
:10081000590190915A01A0915B01B0915C01309116
:10082000580123E0230F2D3758F50196A11DB11D66
:10083000209358018093590190935A01A0935B0132
:10084000B0935C0180915D0190915E01A0915F0188
:10085000B09160010196A11DB11D80935D0190933F
:100860005E01A0935F01B0936001BF91AF919F9132
:100870008F913F912F910F900FBE0F901F90189561
:1008800026E8230F0296A11DB11DD2CF1F920F9211
:100890000FB60F9211242F933F934F935F936F9353
:1008A0007F938F939F93AF93BF93EF93FF93E091C9
:1008B0000301F09104010995FF91EF91BF91AF9170
:1008C0009F918F917F916F915F914F913F912F9168
:1008D0000F900FBE0F901F9018951F920F920FB69A
:1008E0000F9211242F933F934F935F936F937F93B6
:1008F0008F939F93AF93BF93EF93FF93E091010189
:10090000F09102010995FF91EF91BF91AF919F91F5
:100910008F917F916F915F914F913F912F910F90A8
:100920000FBE0F901F9018951F920F920FB60F9247
:1009300011242F933F934F935F936F937F938F93E4
:100940009F93AF93BF93EF93FF9380915401909146
:100950005501A0915601B0915701892B8A2B8B2B01
:10096000C1F190915301809100008927809300008C
:100970008091540190915501A0915601B091570179
:10098000181619061A061B069CF4809154019091C2
:100990005501A0915601B09157010197A109B109E4
:1009A0008093540190935501A0935601B093570141
:1009B000FF91EF91BF91AF919F918F917F916F9137
:1009C0005F914F913F912F910F900FBE0F901F900D
:1009D000189580910001E8E6F0E0E4919FEF909394
:1009E0000001E13051F030F0E23069F060E00E9447
:1009F000B600DECF10926E00F9CF90916F009D7F10
:100A000090936F00F3CF909170009D7F9093700052
:100A100091E09093B0009091B100987F9460909392
:100A2000B1001092B300E2CF1F920F920FB60F9257
:100A300011242F933F934F935F936F937F938F93E3
:100A40009F93AF93BF93EF93FF9381E691E00E9452
:100A5000CA01FF91EF91BF91AF919F918F917F91CB
:100A60006F915F914F913F912F910F900FBE0F901B
:100A70001F9018951F920F920FB60F9211242F936B
:100A80008F939F93EF93FF93E0917101F091720127
:100A90008081E0917701F091780182FD1BC0908107
:100AA00080917A018F5F8F7320917B01821741F0D3
:100AB000E0917A01F0E0EF59FE4F958F80937A0133
:100AC000FF91EF919F918F912F910F900FBE0F90FB
:100AD0001F9018958081F4CFE1E6F1E01382128235
:100AE00088EE93E0A0E0B0E084839583A683B7838B
:100AF00083E191E09183808385EC90E09587848702
:100B000084EC90E09787868780EC90E0918B808BD7
:100B100081EC90E0938B828B82EC90E0958B848BC0
:100B200086EC90E0978B868B118E128E138E148E2E
:100B3000EEEFF1E01382128285E291E091838083EF
:100B40008CE084838FEF85838BE0868388E08783C6
:100B500089E080878AE081878DE08287138614860A
:100B600015861686178681E00C940B03789484B55D
:100B7000826084BD84B5816084BD85B5826085BD99
:100B800085B5816085BD80916E00816080936E0027
:100B90001092810080918100826080938100809119
:100BA00081008160809381008091800081608093CA
:100BB00080008091B10084608093B1008091B0008A
:100BC00081608093B00080917A00846080937A0085
:100BD00080917A00826080937A0080917A008160AF
:100BE00080937A0080917A00806880937A001092D6
:100BF000C100E0917101F091720182E08083E09187
:100C00006D01F0916E011082E0916F01F091700121
:100C10008FEC808310927901E0917501F09176015B
:100C200086E08083E0917301F0917401808180619E
:100C30008083E0917301F0917401808188608083EA
:100C4000E0917301F0917401808180688083E0916C
:100C50007301F091740180818F7D808386ED93E034
:100C600090930201809301018091690083608093D9
:100C70006900E89A82E00E940B030E94B10361E0E0
:100C800083E00E94E40029E8822E20E0922E32EBDD
:100C9000A32E30E0B32EC4E6D0E044E6342E00E0CC
:100CA00010E080E00E94150161E0811592400CF493
:100CB00060E084E00E94B60081E00E94150161E0DE
:100CC000811592400CF460E085E00E94B60082E05D
:100CD0000E94150161E0811592400CF460E086E00D
:100CE0000E94B60083E00E94150161E081159240E8
:100CF0000CF460E087E00E94B600E1EBF0E0849144
:100D0000EDE9F0E0F490F401E490EE2009F461C024
:100D100081110E948D00EE2DF0E0EE0FFF1FE759CC
:100D2000FF4FA591B4918C91F82209F452C061E073
:100D300083E00E94E400F5018491833009F45AC0F5
:100D400050F48130D1F0823009F44FC060E083E08C
:100D50000E94B60016C0873009F456C0883009F4E6
:100D60005BC0843099F7809180008062809380001E
:100D7000D0938B00C0938A0004C084B5806884BD82
:100D800037BC0E9426012B013C018AEFC82ED12CD2
:100D9000E12CF12C0E942601641975098609970936
:100DA000683E734081059105A8F3F1E0CF1AD108A0
:100DB000E108F10828EE420E23E0521E611C711C6E
:100DC000C114D104E104F10429F760E083E00E943A
:100DD000B6000115110509F464CF0E94B6018823FD
:100DE00009F45FCF0E9400005CCF84B5806284BDAF
:100DF00038BCC7CF80918000806880938000D093FA
:100E00008900C0938800BDCF8091B0008068809336
:100E1000B0003092B300B5CF8091B0008062809373
:100E2000B0003092B400ADCFEE0FFF1F0590F491EB
:080E3000E02D0994F894FFCFB6
:100E3800FF4B014B010400050006000700030000FA
:100E4800000000EC014C0179013902AA0188019CDB
:100E58000100000000F6034C015A0259025665725F
:100E6800743A200053696D6F6E00426C65753A20C4
:080E7800005265666C6578000C
:00000001FF
